:100000000C942A000C9447000C9447000C94470071
:100010000C9447000C9447000C9447000C94470044
:100020000C9447000C9447000C9447000C94470034
:100030000C9447000C9447000C9447000C94470024
:100040000C9447000C9447000C9447000C94470014
:100050000C94470011241FBECFE5D8E0DEBFCDBF12
:1000600010E0A0E6B0E0EAEBF9E002C005900D92E6
:10007000AA37B107D9F710E0AAE7B0E001C01D9296
:10008000AC37B107E1F70E9441010C94DB040C94FA
:100090000000FC018281882321F08F3F09F04AC0D3
:1000A00027C08081813079F0813030F0823091F04A
:1000B000833009F041C015C09AB3818180958923AE
:1000C0008ABB80E0089597B381818095892387BB9F
:1000D00080E0089594B381818095892384BB80E07A
:1000E000089591B381818095892381BB80E0089533
:1000F0008081813069F0813028F0823079F083305E
:10010000E9F412C09AB38181892B8ABB80E00895FB
:1001100097B38181892B87BB80E0089594B3818157
:10012000892B84BB80E0089591B38181892B81BBA9
:1001300080E0089581E0089580E0089580E00895CA
:10014000442321F04F3F09F03FC021C0813069F0C6
:10015000813028F0823079F08330C1F512C08BB342
:10016000609568236BBB80E0089588B36095682331
:1001700068BB80E0089585B36095682365BB80E027
:10018000089582B36095682362BB80E00895813052
:1001900061F0813028F0823069F08330C9F40FC0FB
:1001A0008BB3682B6BBB80E0089588B3682B68BB6A
:1001B00080E0089585B3682B65BB80E0089582B325
:1001C000682B62BB80E0089581E0089580E0089587
:1001D00080E00895FA01813059F0813028F08230B2
:1001E00059F0833081F40CC089B3682360830BC05D
:1001F00086B36823608307C083B36823608303C02A
:1002000080B3682360838081882311F081E080833C
:100210000895813061F0813028F0823069F08330B8
:10022000A9F40FC08BB368276BBB80E0089588B337
:10023000682768BB80E0089585B3682765BB80E0C8
:10024000089582B3682762BB80E0089581E0089535
:10025000813019F0823099F409C088E790E00E945B
:1002600042018FE690E00E944900089586E790E001
:100270000E9442018CE690E00E944900089580E0CF
:100280000895FFCFFC018081813061F0813028F03A
:10029000823081F08330D9F415C083B7886683BF7C
:1002A00080E016C08EB59FB58062916A9FBD8EBDFD
:1002B00080E00EC08EB59FB58062916A9FBD8EBDF5
:1002C00080E006C085B5886685BD80E001C081E01C
:1002D000918190937A000895CF92DF92EF92FF92EE
:1002E0000F931F9389019A010F2EFEEACF2EF0EF94
:1002F000DF2EFFEFEF2EFFEFFF2EF02DC00ED11EF1
:10030000E21EF31E9BE3C9169BE6D90690E0E906C0
:1003100090E0F90618F410927A00A2C00F2EFBE2CA
:10032000CF2EFCEFDF2EFFEFEF2EFFEFFF2EF02D95
:10033000C00ED11EE21EF31E9DE7C9169BE0D90632
:1003400090E0E90690E0F90620F491E090937A00BD
:10035000A5C00F2EF5E1CF2EFEEFDF2EFFEFEF2E23
:10036000FFEFFF2EF02DC00ED11EE21EF31E9AEEFF
:10037000C91691E0D90690E0E90690E0F90620F46C
:1003800092E090937A00A1C00F2EFAE0CF2EFFEFFB
:10039000DF2EFFEFEF2EFFEFFF2EF02DC00ED11E50
:1003A000E21EF31E95EFC916D104E104F10420F416
:1003B00093E090937A0090C00F2EF5E8CF2EFFEFD8
:1003C000DF2EFFEFEF2EFFEFFF2EF02DC00ED11E20
:1003D000E21EF31E9BE7C916D104E104F10420F4E8
:1003E00094E090937A00A5C00F2EF0EECF2EFFEF91
:1003F000DF2EFFEFEF2EFFEFFF2EF02DC00ED11EF0
:10040000E21EF31E9BE5C916D104E104F10420F4B9
:1004100095E090937A0077C0015010402040304022
:100420000F3111052105310520F496E090937A00F3
:1004300086C090917A00933009F44EC0943030F425
:10044000913061F1923008F040C00AC0953009F453
:100450005AC0953008F46DC0963009F08DC06FC059
:10046000813061F0813030F0823071F0833009F0FA
:1004700083C010C083B7816083BF88C08EB59FB52D
:1004800081609FBD8EBD98C08EB59FB581609FBDB8
:100490008EBDADC085B5816085BDC4C0833018F404
:1004A000813048F404C0833009F066C00AC083B7C5
:1004B000826083BF6BC02EB53FB522603FBD2EBDAD
:1004C0005BC085B5826085BDADC0833009F054C086
:1004D00085B5836085BDA6C0833018F4813048F4AB
:1004E00004C0833009F048C00AC083B7836083BF6B
:1004F0004DC02EB53FB523603FBD2EBD3DC085B577
:10050000846085BD8FC0833018F4813040F403C00F
:10051000833091F50AC083B7836083BF37C02EB59F
:100520003FB523603FBD2EBD27C085B5846085BD26
:1005300079C0833009F585B5856085BD73C081308C
:1005400059F0813028F0823069F08330A9F410C06E
:1005500083B7856083BF1AC08EB59FB581609FBD8C
:100560008EBD2AC08EB59FB585609FBD8EBD3FC034
:1005700085B5876085BD56C08130F1F0813030F09F
:100580008230A9F1833009F063C04CC070E080E094
:1005900090E00E94EA0320E030E048EC52E40E9440
:1005A000560320E030E04FE753E40E9478040E94B5
:1005B000BE036CBF80E04DC070E080E090E00E9420
:1005C000EA0320E030E048EC52E40E94560320E0C9
:1005D00030E04FE753E40E9478040E94BE03DC0140
:1005E000CB019BBD8ABD99BD88BD80E032C070E063
:1005F00080E090E00E94EA0320E030E048EC52E422
:100600000E94560320E030E04FE753E40E94780454
:100610000E94BE03DC01CB019BBD8ABD99BD88BD94
:1006200080E017C070E080E090E00E94EA0320E0E4
:1006300030E048EC52E40E94560320E030E04FE7FF
:1006400053E40E9478040E94BE0363BD80E001C0B1
:1006500081E091E090937B001F910F91FF90EF90CC
:10066000DF90CF90089590917B00913021F40E940B
:100670006C0180E0089581E00895833018F48130A2
:1006800048F403C0833081F40AC083B7887F83BFF6
:1006900080E0089583B7887F83BF80E0089585B5A3
:1006A000887F85BD80E0089581E008950CD0E6C084
:1006B000DED040F0D5D030F021F45F3F19F0C7C054
:1006C000511110C1CAC0EBD098F39923C9F3552337
:1006D000B1F3951B550BBB27AA2762177307840735
:1006E00038F09F5F5F4F220F331F441FAA1FA9F3EB
:1006F00033D00E2E3AF0E0E830D091505040E695DD
:10070000001CCAF729D0FE2F27D0660F771F881F3D
:10071000BB1F261737074807AB07B0E809F0BB0B2C
:10072000802DBF01FF2793585F4F2AF09E3F510550
:1007300068F08DC0D7C05F3FECF3983EDCF3869540
:1007400077956795B795F7959F5FC9F7880F911DC6
:100750009695879597F90895E1E0660F771F881FB2
:10076000BB1F621773078407BA0720F0621B730B65
:10077000840BBA0BEE1F88F7E095089598D088F0A7
:100780009F5790F0B92F9927B751A0F0D1F0660F7D
:10079000771F881F991F1AF0BA95C9F712C0B13098
:1007A00081F09FD0B1E008959CC0672F782F8827F3
:1007B000B85F39F0B93FCCF3869577956795B395D7
:1007C000D9F73EF490958095709561957F4F8F4F46
:1007D0009F4F0895E89409C097FB3EF4909580954B
:1007E000709561957F4F8F4F9F4F9923A9F0F92FF7
:1007F00096E9BB279395F695879577956795B79575
:10080000F111F8CFFAF4BB0F11F460FF1BC06F5F5A
:100810007F4F8F4F9F4F16C0882311F096E911C06C
:10082000772321F09EE8872F762F05C0662371F08D
:1008300096E8862F70E060E02AF09A95660F771FA1
:10084000881FDAF7880F9695879597F9089597F995
:100850009F6780E870E060E008959FEF80EC089566
:1008600000240A941616170618060906089500248F
:100870000A9412161306140605060895092E039409
:10088000000C11F4882352F0BB0F40F4BF2B11F47D
:1008900060FF04C06F5F7F4F8F4F9F4F089557FDDC
:1008A0009058440F551F59F05F3F71F04795880FDE
:1008B00097FB991F61F09F3F79F087950895121675
:1008C00013061406551FF2CF4695F1DF08C0161621
:1008D00017061806991FF1CF8695710561050894D2
:1008E0000895E894BB2766277727CB0197F90895E9
:1008F0000BD0C4CFB5DF28F0BADF18F0952309F08C
:10090000A6CFABCF1124EECFCADFA0F3959FD1F3D2
:10091000950F50E0551F629FF001729FBB27F00DAD
:10092000B11D639FAA27F00DB11DAA1F649F662702
:10093000B00DA11D661F829F2227B00DA11D621F51
:10094000739FB00DA11D621F839FA00D611D221F0B
:10095000749F3327A00D611D231F849F600D211DEF
:10096000822F762F6A2F11249F5750408AF0E1F092
:1009700088234AF0EE0FFF1FBB1F661F771F881FDB
:1009800091505040A9F79E3F510570F060CFAACF1B
:100990005F3FECF3983EDCF3869577956795B795C6
:1009A000F795E7959F5FC1F7FE2B880F911D9695F0
:0A09B000879597F90895F894FFCF9A
:1009BA00031CFF02F0FF01F0FF00F0FF03E0FF035A
:0A09CA001CFF0306000602060106EA
:00000001FF
